{
	"_format": "hh-sol-artifact-1",
	"contractName": "RoboPunkNFT",
	"sourceName": "contracts/RoboPunkNFT.sol",
	"abi": [
		{
			"inputs": [],
			"stateMutability": "payable",
			"type": "constructor"
		},
		{
			"anonymous": false,
			"inputs": [
				{
					"indexed": true,
					"internalType": "address",
					"name": "owner",
					"type": "address"
				},
				{
					"indexed": true,
					"internalType": "address",
					"name": "approved",
					"type": "address"
				},
				{
					"indexed": true,
					"internalType": "uint256",
					"name": "tokenId",
					"type": "uint256"
				}
			],
			"name": "Approval",
			"type": "event"
		},
		{
			"anonymous": false,
			"inputs": [
				{
					"indexed": true,
					"internalType": "address",
					"name": "owner",
					"type": "address"
				},
				{
					"indexed": true,
					"internalType": "address",
					"name": "operator",
					"type": "address"
				},
				{
					"indexed": false,
					"internalType": "bool",
					"name": "approved",
					"type": "bool"
				}
			],
			"name": "ApprovalForAll",
			"type": "event"
		},
		{
			"anonymous": false,
			"inputs": [
				{
					"indexed": true,
					"internalType": "address",
					"name": "previousOwner",
					"type": "address"
				},
				{
					"indexed": true,
					"internalType": "address",
					"name": "newOwner",
					"type": "address"
				}
			],
			"name": "OwnershipTransferred",
			"type": "event"
		},
		{
			"anonymous": false,
			"inputs": [
				{
					"indexed": true,
					"internalType": "address",
					"name": "from",
					"type": "address"
				},
				{
					"indexed": true,
					"internalType": "address",
					"name": "to",
					"type": "address"
				},
				{
					"indexed": true,
					"internalType": "uint256",
					"name": "tokenId",
					"type": "uint256"
				}
			],
			"name": "Transfer",
			"type": "event"
		},
		{
			"inputs": [
				{
					"internalType": "address",
					"name": "to",
					"type": "address"
				},
				{
					"internalType": "uint256",
					"name": "tokenId",
					"type": "uint256"
				}
			],
			"name": "approve",
			"outputs": [],
			"stateMutability": "nonpayable",
			"type": "function"
		},
		{
			"inputs": [
				{
					"internalType": "address",
					"name": "owner",
					"type": "address"
				}
			],
			"name": "balanceOf",
			"outputs": [
				{
					"internalType": "uint256",
					"name": "",
					"type": "uint256"
				}
			],
			"stateMutability": "view",
			"type": "function"
		},
		{
			"inputs": [
				{
					"internalType": "uint256",
					"name": "tokenId",
					"type": "uint256"
				}
			],
			"name": "getApproved",
			"outputs": [
				{
					"internalType": "address",
					"name": "",
					"type": "address"
				}
			],
			"stateMutability": "view",
			"type": "function"
		},
		{
			"inputs": [
				{
					"internalType": "address",
					"name": "owner",
					"type": "address"
				},
				{
					"internalType": "address",
					"name": "operator",
					"type": "address"
				}
			],
			"name": "isApprovedForAll",
			"outputs": [
				{
					"internalType": "bool",
					"name": "",
					"type": "bool"
				}
			],
			"stateMutability": "view",
			"type": "function"
		},
		{
			"inputs": [],
			"name": "maxPerWallet",
			"outputs": [
				{
					"internalType": "uint256",
					"name": "",
					"type": "uint256"
				}
			],
			"stateMutability": "view",
			"type": "function"
		},
		{
			"inputs": [],
			"name": "maxSupply",
			"outputs": [
				{
					"internalType": "uint256",
					"name": "",
					"type": "uint256"
				}
			],
			"stateMutability": "view",
			"type": "function"
		},
		{
			"inputs": [
				{
					"internalType": "uint256",
					"name": "quantity_",
					"type": "uint256"
				}
			],
			"name": "mint",
			"outputs": [],
			"stateMutability": "payable",
			"type": "function"
		},
		{
			"inputs": [],
			"name": "mintPrice",
			"outputs": [
				{
					"internalType": "uint256",
					"name": "",
					"type": "uint256"
				}
			],
			"stateMutability": "view",
			"type": "function"
		},
		{
			"inputs": [],
			"name": "name",
			"outputs": [
				{
					"internalType": "string",
					"name": "",
					"type": "string"
				}
			],
			"stateMutability": "view",
			"type": "function"
		},
		{
			"inputs": [],
			"name": "owner",
			"outputs": [
				{
					"internalType": "address",
					"name": "",
					"type": "address"
				}
			],
			"stateMutability": "view",
			"type": "function"
		},
		{
			"inputs": [
				{
					"internalType": "uint256",
					"name": "tokenId",
					"type": "uint256"
				}
			],
			"name": "ownerOf",
			"outputs": [
				{
					"internalType": "address",
					"name": "",
					"type": "address"
				}
			],
			"stateMutability": "view",
			"type": "function"
		},
		{
			"inputs": [],
			"name": "renounceOwnership",
			"outputs": [],
			"stateMutability": "nonpayable",
			"type": "function"
		},
		{
			"inputs": [
				{
					"internalType": "address",
					"name": "from",
					"type": "address"
				},
				{
					"internalType": "address",
					"name": "to",
					"type": "address"
				},
				{
					"internalType": "uint256",
					"name": "tokenId",
					"type": "uint256"
				}
			],
			"name": "safeTransferFrom",
			"outputs": [],
			"stateMutability": "nonpayable",
			"type": "function"
		},
		{
			"inputs": [
				{
					"internalType": "address",
					"name": "from",
					"type": "address"
				},
				{
					"internalType": "address",
					"name": "to",
					"type": "address"
				},
				{
					"internalType": "uint256",
					"name": "tokenId",
					"type": "uint256"
				},
				{
					"internalType": "bytes",
					"name": "data",
					"type": "bytes"
				}
			],
			"name": "safeTransferFrom",
			"outputs": [],
			"stateMutability": "nonpayable",
			"type": "function"
		},
		{
			"inputs": [
				{
					"internalType": "address",
					"name": "operator",
					"type": "address"
				},
				{
					"internalType": "bool",
					"name": "approved",
					"type": "bool"
				}
			],
			"name": "setApprovalForAll",
			"outputs": [],
			"stateMutability": "nonpayable",
			"type": "function"
		},
		{
			"inputs": [
				{
					"internalType": "string",
					"name": "baseTokenUri_",
					"type": "string"
				}
			],
			"name": "setBaseTokenUri",
			"outputs": [],
			"stateMutability": "nonpayable",
			"type": "function"
		},
		{
			"inputs": [
				{
					"internalType": "bool",
					"name": "isPublicMintEnabled_",
					"type": "bool"
				}
			],
			"name": "setPublicMintEnabled",
			"outputs": [],
			"stateMutability": "nonpayable",
			"type": "function"
		},
		{
			"inputs": [
				{
					"internalType": "bytes4",
					"name": "interfaceId",
					"type": "bytes4"
				}
			],
			"name": "supportsInterface",
			"outputs": [
				{
					"internalType": "bool",
					"name": "",
					"type": "bool"
				}
			],
			"stateMutability": "view",
			"type": "function"
		},
		{
			"inputs": [],
			"name": "symbol",
			"outputs": [
				{
					"internalType": "string",
					"name": "",
					"type": "string"
				}
			],
			"stateMutability": "view",
			"type": "function"
		},
		{
			"inputs": [
				{
					"internalType": "uint256",
					"name": "tokenId_",
					"type": "uint256"
				}
			],
			"name": "tokenURI",
			"outputs": [
				{
					"internalType": "string",
					"name": "",
					"type": "string"
				}
			],
			"stateMutability": "view",
			"type": "function"
		},
		{
			"inputs": [],
			"name": "totalSupply",
			"outputs": [
				{
					"internalType": "uint256",
					"name": "",
					"type": "uint256"
				}
			],
			"stateMutability": "view",
			"type": "function"
		},
		{
			"inputs": [
				{
					"internalType": "address",
					"name": "from",
					"type": "address"
				},
				{
					"internalType": "address",
					"name": "to",
					"type": "address"
				},
				{
					"internalType": "uint256",
					"name": "tokenId",
					"type": "uint256"
				}
			],
			"name": "transferFrom",
			"outputs": [],
			"stateMutability": "nonpayable",
			"type": "function"
		},
		{
			"inputs": [
				{
					"internalType": "address",
					"name": "newOwner",
					"type": "address"
				}
			],
			"name": "transferOwnership",
			"outputs": [],
			"stateMutability": "nonpayable",
			"type": "function"
		},
		{
			"inputs": [
				{
					"internalType": "address",
					"name": "",
					"type": "address"
				}
			],
			"name": "walletMints",
			"outputs": [
				{
					"internalType": "uint256",
					"name": "",
					"type": "uint256"
				}
			],
			"stateMutability": "view",
			"type": "function"
		},
		{
			"inputs": [],
			"name": "withdraw",
			"outputs": [],
			"stateMutability": "nonpayable",
			"type": "function"
		},
		{
			"inputs": [],
			"name": "withdrawWallet",
			"outputs": [
				{
					"internalType": "address payable",
					"name": "",
					"type": "address"
				}
			],
			"stateMutability": "view",
			"type": "function"
		}
	],
	"bytecode": "0x60806040526040518060400160405280600881526020017f526f626f50756e6b0000000000000000000000000000000000000000000000008152506040518060400160405280600281526020017f525000000000000000000000000000000000000000000000000000000000000081525081600090816200008191906200042a565b5080600190816200009391906200042a565b505050620000b6620000aa620000e260201b60201c565b620000ea60201b60201c565b662386f26fc1000060078190555060006008819055506103e8600981905550600a808190555062000511565b600033905090565b6000600660009054906101000a900473ffffffffffffffffffffffffffffffffffffffff16905081600660006101000a81548173ffffffffffffffffffffffffffffffffffffffff021916908373ffffffffffffffffffffffffffffffffffffffff1602179055508173ffffffffffffffffffffffffffffffffffffffff168173ffffffffffffffffffffffffffffffffffffffff167f8be0079c531659141344cd1fd0a4f28419497f9722a3daafe3b4186f6b6457e060405160405180910390a35050565b600081519050919050565b7f4e487b7100000000000000000000000000000000000000000000000000000000600052604160045260246000fd5b7f4e487b7100000000000000000000000000000000000000000000000000000000600052602260045260246000fd5b600060028204905060018216806200023257607f821691505b602082108103620002485762000247620001ea565b5b50919050565b60008190508160005260206000209050919050565b60006020601f8301049050919050565b600082821b905092915050565b600060088302620002b27fffffffffffffffffffffffffffffffffffffffffffffffffffffffffffffffff8262000273565b620002be868362000273565b95508019841693508086168417925050509392505050565b6000819050919050565b6000819050919050565b60006200030b62000305620002ff84620002d6565b620002e0565b620002d6565b9050919050565b6000819050919050565b6200032783620002ea565b6200033f620003368262000312565b84845462000280565b825550505050565b600090565b6200035662000347565b620003638184846200031c565b505050565b5b818110156200038b576200037f6000826200034c565b60018101905062000369565b5050565b601f821115620003da57620003a4816200024e565b620003af8462000263565b81016020851015620003bf578190505b620003d7620003ce8562000263565b83018262000368565b50505b505050565b600082821c905092915050565b6000620003ff60001984600802620003df565b1980831691505092915050565b60006200041a8383620003ec565b9150826002028217905092915050565b6200043582620001b0565b67ffffffffffffffff811115620004515762000450620001bb565b5b6200045d825462000219565b6200046a8282856200038f565b600060209050601f831160018114620004a257600084156200048d578287015190505b6200049985826200040c565b86555062000509565b601f198416620004b2866200024e565b60005b82811015620004dc57848901518255600182019150602085019450602081019050620004b5565b86831015620004fc5784890151620004f8601f891682620003ec565b8355505b6001600288020188555050505b505050505050565b6137ba80620005216000396000f3fe6080604052600436106101815760003560e01c8063818668d7116100d1578063a22cb4651161008a578063d5abeb0111610064578063d5abeb011461054d578063e985e9c514610578578063f0293fd3146105b5578063f2fde38b146105f257610181565b8063a22cb465146104be578063b88d4fde146104e7578063c87b56dd1461051057610181565b8063818668d7146103cf57806385d178f4146103f85780638da5cb5b1461042357806395652cfa1461044e57806395d89b4114610477578063a0712d68146104a257610181565b80633ccfd60b1161013e5780636352211e116101185780636352211e146103135780636817c76c1461035057806370a082311461037b578063715018a6146103b857610181565b80633ccfd60b146102a857806342842e0e146102bf578063453c2310146102e857610181565b806301ffc9a71461018657806306fdde03146101c3578063081812fc146101ee578063095ea7b31461022b57806318160ddd1461025457806323b872dd1461027f575b600080fd5b34801561019257600080fd5b506101ad60048036038101906101a891906121a9565b61061b565b6040516101ba91906121f1565b60405180910390f35b3480156101cf57600080fd5b506101d86106fd565b6040516101e5919061229c565b60405180910390f35b3480156101fa57600080fd5b50610215600480360381019061021091906122f4565b61078f565b6040516102229190612362565b60405180910390f35b34801561023757600080fd5b50610252600480360381019061024d91906123a9565b6107d5565b005b34801561026057600080fd5b506102696108ec565b60405161027691906123f8565b60405180910390f35b34801561028b57600080fd5b506102a660048036038101906102a19190612413565b6108f2565b005b3480156102b457600080fd5b506102bd610952565b005b3480156102cb57600080fd5b506102e660048036038101906102e19190612413565b610a2b565b005b3480156102f457600080fd5b506102fd610a4b565b60405161030a91906123f8565b60405180910390f35b34801561031f57600080fd5b5061033a600480360381019061033591906122f4565b610a51565b6040516103479190612362565b60405180910390f35b34801561035c57600080fd5b50610365610ad7565b60405161037291906123f8565b60405180910390f35b34801561038757600080fd5b506103a2600480360381019061039d9190612466565b610add565b6040516103af91906123f8565b60405180910390f35b3480156103c457600080fd5b506103cd610b94565b005b3480156103db57600080fd5b506103f660048036038101906103f191906124bf565b610ba8565b005b34801561040457600080fd5b5061040d610bcd565b60405161041a919061250d565b60405180910390f35b34801561042f57600080fd5b50610438610bf3565b6040516104459190612362565b60405180910390f35b34801561045a57600080fd5b506104756004803603810190610470919061258d565b610c1d565b005b34801561048357600080fd5b5061048c610c3b565b604051610499919061229c565b60405180910390f35b6104bc60048036038101906104b791906122f4565b610ccd565b005b3480156104ca57600080fd5b506104e560048036038101906104e091906125da565b610ef9565b005b3480156104f357600080fd5b5061050e6004803603810190610509919061274a565b610f0f565b005b34801561051c57600080fd5b50610537600480360381019061053291906122f4565b610f71565b604051610544919061229c565b60405180910390f35b34801561055957600080fd5b50610562610fed565b60405161056f91906123f8565b60405180910390f35b34801561058457600080fd5b5061059f600480360381019061059a91906127cd565b610ff3565b6040516105ac91906121f1565b60405180910390f35b3480156105c157600080fd5b506105dc60048036038101906105d79190612466565b611087565b6040516105e991906123f8565b60405180910390f35b3480156105fe57600080fd5b5061061960048036038101906106149190612466565b61109f565b005b60007f80ac58cd000000000000000000000000000000000000000000000000000000007bffffffffffffffffffffffffffffffffffffffffffffffffffffffff1916827bffffffffffffffffffffffffffffffffffffffffffffffffffffffff191614806106e657507f5b5e139f000000000000000000000000000000000000000000000000000000007bffffffffffffffffffffffffffffffffffffffffffffffffffffffff1916827bffffffffffffffffffffffffffffffffffffffffffffffffffffffff1916145b806106f657506106f582611122565b5b9050919050565b60606000805461070c9061283c565b80601f01602080910402602001604051908101604052809291908181526020018280546107389061283c565b80156107855780601f1061075a57610100808354040283529160200191610785565b820191906000526020600020905b81548152906001019060200180831161076857829003601f168201915b5050505050905090565b600061079a8261118c565b6004600083815260200190815260200160002060009054906101000a900473ffffffffffffffffffffffffffffffffffffffff169050919050565b60006107e082610a51565b90508073ffffffffffffffffffffffffffffffffffffffff168373ffffffffffffffffffffffffffffffffffffffff1603610850576040517f08c379a0000000000000000000000000000000000000000000000000000000008152600401610847906128df565b60405180910390fd5b8073ffffffffffffffffffffffffffffffffffffffff1661086f6111d7565b73ffffffffffffffffffffffffffffffffffffffff16148061089e575061089d816108986111d7565b610ff3565b5b6108dd576040517f08c379a00000000000000000000000000000000000000000000000000000000081526004016108d490612971565b60405180910390fd5b6108e783836111df565b505050565b60085481565b6109036108fd6111d7565b82611298565b610942576040517f08c379a000000000000000000000000000000000000000000000000000000000815260040161093990612a03565b60405180910390fd5b61094d83838361132d565b505050565b61095a611626565b6000600d60009054906101000a900473ffffffffffffffffffffffffffffffffffffffff1673ffffffffffffffffffffffffffffffffffffffff16476040516109a290612a54565b60006040518083038185875af1925050503d80600081146109df576040519150601f19603f3d011682016040523d82523d6000602084013e6109e4565b606091505b5050905080610a28576040517f08c379a0000000000000000000000000000000000000000000000000000000008152600401610a1f90612ab5565b60405180910390fd5b50565b610a4683838360405180602001604052806000815250610f0f565b505050565b600a5481565b600080610a5d836116a4565b9050600073ffffffffffffffffffffffffffffffffffffffff168173ffffffffffffffffffffffffffffffffffffffff1603610ace576040517f08c379a0000000000000000000000000000000000000000000000000000000008152600401610ac590612b21565b60405180910390fd5b80915050919050565b60075481565b60008073ffffffffffffffffffffffffffffffffffffffff168273ffffffffffffffffffffffffffffffffffffffff1603610b4d576040517f08c379a0000000000000000000000000000000000000000000000000000000008152600401610b4490612bb3565b60405180910390fd5b600360008373ffffffffffffffffffffffffffffffffffffffff1673ffffffffffffffffffffffffffffffffffffffff168152602001908152602001600020549050919050565b610b9c611626565b610ba660006116e1565b565b610bb0611626565b80600b60006101000a81548160ff02191690831515021790555050565b600d60009054906101000a900473ffffffffffffffffffffffffffffffffffffffff1681565b6000600660009054906101000a900473ffffffffffffffffffffffffffffffffffffffff16905090565b610c25611626565b8181600c9182610c36929190612d8a565b505050565b606060018054610c4a9061283c565b80601f0160208091040260200160405190810160405280929190818152602001828054610c769061283c565b8015610cc35780601f10610c9857610100808354040283529160200191610cc3565b820191906000526020600020905b815481529060010190602001808311610ca657829003601f168201915b5050505050905090565b600b60009054906101000a900460ff16610d1c576040517f08c379a0000000000000000000000000000000000000000000000000000000008152600401610d1390612ea6565b60405180910390fd5b60075481610d2a9190612ef5565b3414610d6b576040517f08c379a0000000000000000000000000000000000000000000000000000000008152600401610d6290612f83565b60405180910390fd5b60095481600854610d7c9190612fa3565b1115610dbd576040517f08c379a0000000000000000000000000000000000000000000000000000000008152600401610db490613023565b60405180910390fd5b600a5481600e60003373ffffffffffffffffffffffffffffffffffffffff1673ffffffffffffffffffffffffffffffffffffffff16815260200190815260200160002054610e0b9190612fa3565b1115610e4c576040517f08c379a0000000000000000000000000000000000000000000000000000000008152600401610e439061308f565b60405180910390fd5b60005b81811015610ef55760006001600854610e689190612fa3565b905060086000815480929190610e7d906130af565b9190505550600e60003373ffffffffffffffffffffffffffffffffffffffff1673ffffffffffffffffffffffffffffffffffffffff1681526020019081526020016000206000815480929190610ed2906130af565b9190505550610ee133826117a7565b508080610eed906130af565b915050610e4f565b5050565b610f0b610f046111d7565b83836117c5565b5050565b610f20610f1a6111d7565b83611298565b610f5f576040517f08c379a0000000000000000000000000000000000000000000000000000000008152600401610f5690612a03565b60405180910390fd5b610f6b84848484611931565b50505050565b6060610f7c8261198d565b610fbb576040517f08c379a0000000000000000000000000000000000000000000000000000000008152600401610fb290613143565b60405180910390fd5b600c610fc6836119ce565b604051602001610fd7929190613222565b6040516020818303038152906040529050919050565b60095481565b6000600560008473ffffffffffffffffffffffffffffffffffffffff1673ffffffffffffffffffffffffffffffffffffffff16815260200190815260200160002060008373ffffffffffffffffffffffffffffffffffffffff1673ffffffffffffffffffffffffffffffffffffffff16815260200190815260200160002060009054906101000a900460ff16905092915050565b600e6020528060005260406000206000915090505481565b6110a7611626565b600073ffffffffffffffffffffffffffffffffffffffff168173ffffffffffffffffffffffffffffffffffffffff1603611116576040517f08c379a000000000000000000000000000000000000000000000000000000000815260040161110d906132b8565b60405180910390fd5b61111f816116e1565b50565b60007f01ffc9a7000000000000000000000000000000000000000000000000000000007bffffffffffffffffffffffffffffffffffffffffffffffffffffffff1916827bffffffffffffffffffffffffffffffffffffffffffffffffffffffff1916149050919050565b6111958161198d565b6111d4576040517f08c379a00000000000000000000000000000000000000000000000000000000081526004016111cb90612b21565b60405180910390fd5b50565b600033905090565b816004600083815260200190815260200160002060006101000a81548173ffffffffffffffffffffffffffffffffffffffff021916908373ffffffffffffffffffffffffffffffffffffffff160217905550808273ffffffffffffffffffffffffffffffffffffffff1661125283610a51565b73ffffffffffffffffffffffffffffffffffffffff167f8c5be1e5ebec7d5bd14f71427d1e84f3dd0314c0f7b2291e5b200ac8c7c3b92560405160405180910390a45050565b6000806112a483610a51565b90508073ffffffffffffffffffffffffffffffffffffffff168473ffffffffffffffffffffffffffffffffffffffff1614806112e657506112e58185610ff3565b5b8061132457508373ffffffffffffffffffffffffffffffffffffffff1661130c8461078f565b73ffffffffffffffffffffffffffffffffffffffff16145b91505092915050565b8273ffffffffffffffffffffffffffffffffffffffff1661134d82610a51565b73ffffffffffffffffffffffffffffffffffffffff16146113a3576040517f08c379a000000000000000000000000000000000000000000000000000000000815260040161139a9061334a565b60405180910390fd5b600073ffffffffffffffffffffffffffffffffffffffff168273ffffffffffffffffffffffffffffffffffffffff1603611412576040517f08c379a0000000000000000000000000000000000000000000000000000000008152600401611409906133dc565b60405180910390fd5b61141f8383836001611a9c565b8273ffffffffffffffffffffffffffffffffffffffff1661143f82610a51565b73ffffffffffffffffffffffffffffffffffffffff1614611495576040517f08c379a000000000000000000000000000000000000000000000000000000000815260040161148c9061334a565b60405180910390fd5b6004600082815260200190815260200160002060006101000a81549073ffffffffffffffffffffffffffffffffffffffff02191690556001600360008573ffffffffffffffffffffffffffffffffffffffff1673ffffffffffffffffffffffffffffffffffffffff168152602001908152602001600020600082825403925050819055506001600360008473ffffffffffffffffffffffffffffffffffffffff1673ffffffffffffffffffffffffffffffffffffffff16815260200190815260200160002060008282540192505081905550816002600083815260200190815260200160002060006101000a81548173ffffffffffffffffffffffffffffffffffffffff021916908373ffffffffffffffffffffffffffffffffffffffff160217905550808273ffffffffffffffffffffffffffffffffffffffff168473ffffffffffffffffffffffffffffffffffffffff167fddf252ad1be2c89b69c2b068fc378daa952ba7f163c4a11628f55a4df523b3ef60405160405180910390a46116218383836001611bc2565b505050565b61162e6111d7565b73ffffffffffffffffffffffffffffffffffffffff1661164c610bf3565b73ffffffffffffffffffffffffffffffffffffffff16146116a2576040517f08c379a000000000000000000000000000000000000000000000000000000000815260040161169990613448565b60405180910390fd5b565b60006002600083815260200190815260200160002060009054906101000a900473ffffffffffffffffffffffffffffffffffffffff169050919050565b6000600660009054906101000a900473ffffffffffffffffffffffffffffffffffffffff16905081600660006101000a81548173ffffffffffffffffffffffffffffffffffffffff021916908373ffffffffffffffffffffffffffffffffffffffff1602179055508173ffffffffffffffffffffffffffffffffffffffff168173ffffffffffffffffffffffffffffffffffffffff167f8be0079c531659141344cd1fd0a4f28419497f9722a3daafe3b4186f6b6457e060405160405180910390a35050565b6117c1828260405180602001604052806000815250611bc8565b5050565b8173ffffffffffffffffffffffffffffffffffffffff168373ffffffffffffffffffffffffffffffffffffffff1603611833576040517f08c379a000000000000000000000000000000000000000000000000000000000815260040161182a906134b4565b60405180910390fd5b80600560008573ffffffffffffffffffffffffffffffffffffffff1673ffffffffffffffffffffffffffffffffffffffff16815260200190815260200160002060008473ffffffffffffffffffffffffffffffffffffffff1673ffffffffffffffffffffffffffffffffffffffff16815260200190815260200160002060006101000a81548160ff0219169083151502179055508173ffffffffffffffffffffffffffffffffffffffff168373ffffffffffffffffffffffffffffffffffffffff167f17307eab39ab6107e8899845ad3d59bd9653f200f220920489ca2b5937696c318360405161192491906121f1565b60405180910390a3505050565b61193c84848461132d565b61194884848484611c23565b611987576040517f08c379a000000000000000000000000000000000000000000000000000000000815260040161197e90613546565b60405180910390fd5b50505050565b60008073ffffffffffffffffffffffffffffffffffffffff166119af836116a4565b73ffffffffffffffffffffffffffffffffffffffff1614159050919050565b6060600060016119dd84611daa565b01905060008167ffffffffffffffff8111156119fc576119fb61261f565b5b6040519080825280601f01601f191660200182016040528015611a2e5781602001600182028036833780820191505090505b509050600082602001820190505b600115611a91578080600190039150507f3031323334353637383961626364656600000000000000000000000000000000600a86061a8153600a8581611a8557611a84613566565b5b04945060008503611a3c575b819350505050919050565b6001811115611bbc57600073ffffffffffffffffffffffffffffffffffffffff168473ffffffffffffffffffffffffffffffffffffffff1614611b305780600360008673ffffffffffffffffffffffffffffffffffffffff1673ffffffffffffffffffffffffffffffffffffffff1681526020019081526020016000206000828254611b289190613595565b925050819055505b600073ffffffffffffffffffffffffffffffffffffffff168373ffffffffffffffffffffffffffffffffffffffff1614611bbb5780600360008573ffffffffffffffffffffffffffffffffffffffff1673ffffffffffffffffffffffffffffffffffffffff1681526020019081526020016000206000828254611bb39190612fa3565b925050819055505b5b50505050565b50505050565b611bd28383611efd565b611bdf6000848484611c23565b611c1e576040517f08c379a0000000000000000000000000000000000000000000000000000000008152600401611c1590613546565b60405180910390fd5b505050565b6000611c448473ffffffffffffffffffffffffffffffffffffffff1661211a565b15611d9d578373ffffffffffffffffffffffffffffffffffffffff1663150b7a02611c6d6111d7565b8786866040518563ffffffff1660e01b8152600401611c8f949392919061361e565b6020604051808303816000875af1925050508015611ccb57506040513d601f19601f82011682018060405250810190611cc8919061367f565b60015b611d4d573d8060008114611cfb576040519150601f19603f3d011682016040523d82523d6000602084013e611d00565b606091505b506000815103611d45576040517f08c379a0000000000000000000000000000000000000000000000000000000008152600401611d3c90613546565b60405180910390fd5b805181602001fd5b63150b7a0260e01b7bffffffffffffffffffffffffffffffffffffffffffffffffffffffff1916817bffffffffffffffffffffffffffffffffffffffffffffffffffffffff191614915050611da2565b600190505b949350505050565b600080600090507a184f03e93ff9f4daa797ed6e38ed64bf6a1f0100000000000000008310611e08577a184f03e93ff9f4daa797ed6e38ed64bf6a1f0100000000000000008381611dfe57611dfd613566565b5b0492506040810190505b6d04ee2d6d415b85acef81000000008310611e45576d04ee2d6d415b85acef81000000008381611e3b57611e3a613566565b5b0492506020810190505b662386f26fc100008310611e7457662386f26fc100008381611e6a57611e69613566565b5b0492506010810190505b6305f5e1008310611e9d576305f5e1008381611e9357611e92613566565b5b0492506008810190505b6127108310611ec2576127108381611eb857611eb7613566565b5b0492506004810190505b60648310611ee55760648381611edb57611eda613566565b5b0492506002810190505b600a8310611ef4576001810190505b80915050919050565b600073ffffffffffffffffffffffffffffffffffffffff168273ffffffffffffffffffffffffffffffffffffffff1603611f6c576040517f08c379a0000000000000000000000000000000000000000000000000000000008152600401611f63906136f8565b60405180910390fd5b611f758161198d565b15611fb5576040517f08c379a0000000000000000000000000000000000000000000000000000000008152600401611fac90613764565b60405180910390fd5b611fc3600083836001611a9c565b611fcc8161198d565b1561200c576040517f08c379a000000000000000000000000000000000000000000000000000000000815260040161200390613764565b60405180910390fd5b6001600360008473ffffffffffffffffffffffffffffffffffffffff1673ffffffffffffffffffffffffffffffffffffffff16815260200190815260200160002060008282540192505081905550816002600083815260200190815260200160002060006101000a81548173ffffffffffffffffffffffffffffffffffffffff021916908373ffffffffffffffffffffffffffffffffffffffff160217905550808273ffffffffffffffffffffffffffffffffffffffff16600073ffffffffffffffffffffffffffffffffffffffff167fddf252ad1be2c89b69c2b068fc378daa952ba7f163c4a11628f55a4df523b3ef60405160405180910390a4612116600083836001611bc2565b5050565b6000808273ffffffffffffffffffffffffffffffffffffffff163b119050919050565b6000604051905090565b600080fd5b600080fd5b60007fffffffff0000000000000000000000000000000000000000000000000000000082169050919050565b61218681612151565b811461219157600080fd5b50565b6000813590506121a38161217d565b92915050565b6000602082840312156121bf576121be612147565b5b60006121cd84828501612194565b91505092915050565b60008115159050919050565b6121eb816121d6565b82525050565b600060208201905061220660008301846121e2565b92915050565b600081519050919050565b600082825260208201905092915050565b60005b8381101561224657808201518184015260208101905061222b565b60008484015250505050565b6000601f19601f8301169050919050565b600061226e8261220c565b6122788185612217565b9350612288818560208601612228565b61229181612252565b840191505092915050565b600060208201905081810360008301526122b68184612263565b905092915050565b6000819050919050565b6122d1816122be565b81146122dc57600080fd5b50565b6000813590506122ee816122c8565b92915050565b60006020828403121561230a57612309612147565b5b6000612318848285016122df565b91505092915050565b600073ffffffffffffffffffffffffffffffffffffffff82169050919050565b600061234c82612321565b9050919050565b61235c81612341565b82525050565b60006020820190506123776000830184612353565b92915050565b61238681612341565b811461239157600080fd5b50565b6000813590506123a38161237d565b92915050565b600080604083850312156123c0576123bf612147565b5b60006123ce85828601612394565b92505060206123df858286016122df565b9150509250929050565b6123f2816122be565b82525050565b600060208201905061240d60008301846123e9565b92915050565b60008060006060848603121561242c5761242b612147565b5b600061243a86828701612394565b935050602061244b86828701612394565b925050604061245c868287016122df565b9150509250925092565b60006020828403121561247c5761247b612147565b5b600061248a84828501612394565b91505092915050565b61249c816121d6565b81146124a757600080fd5b50565b6000813590506124b981612493565b92915050565b6000602082840312156124d5576124d4612147565b5b60006124e3848285016124aa565b91505092915050565b60006124f782612321565b9050919050565b612507816124ec565b82525050565b600060208201905061252260008301846124fe565b92915050565b600080fd5b600080fd5b600080fd5b60008083601f84011261254d5761254c612528565b5b8235905067ffffffffffffffff81111561256a5761256961252d565b5b60208301915083600182028301111561258657612585612532565b5b9250929050565b600080602083850312156125a4576125a3612147565b5b600083013567ffffffffffffffff8111156125c2576125c161214c565b5b6125ce85828601612537565b92509250509250929050565b600080604083850312156125f1576125f0612147565b5b60006125ff85828601612394565b9250506020612610858286016124aa565b9150509250929050565b600080fd5b7f4e487b7100000000000000000000000000000000000000000000000000000000600052604160045260246000fd5b61265782612252565b810181811067ffffffffffffffff821117156126765761267561261f565b5b80604052505050565b600061268961213d565b9050612695828261264e565b919050565b600067ffffffffffffffff8211156126b5576126b461261f565b5b6126be82612252565b9050602081019050919050565b82818337600083830152505050565b60006126ed6126e88461269a565b61267f565b9050828152602081018484840111156127095761270861261a565b5b6127148482856126cb565b509392505050565b600082601f83011261273157612730612528565b5b81356127418482602086016126da565b91505092915050565b6000806000806080858703121561276457612763612147565b5b600061277287828801612394565b945050602061278387828801612394565b9350506040612794878288016122df565b925050606085013567ffffffffffffffff8111156127b5576127b461214c565b5b6127c18782880161271c565b91505092959194509250565b600080604083850312156127e4576127e3612147565b5b60006127f285828601612394565b925050602061280385828601612394565b9150509250929050565b7f4e487b7100000000000000000000000000000000000000000000000000000000600052602260045260246000fd5b6000600282049050600182168061285457607f821691505b6020821081036128675761286661280d565b5b50919050565b7f4552433732313a20617070726f76616c20746f2063757272656e74206f776e6560008201527f7200000000000000000000000000000000000000000000000000000000000000602082015250565b60006128c9602183612217565b91506128d48261286d565b604082019050919050565b600060208201905081810360008301526128f8816128bc565b9050919050565b7f4552433732313a20617070726f76652063616c6c6572206973206e6f7420746f60008201527f6b656e206f776e6572206f7220617070726f76656420666f7220616c6c000000602082015250565b600061295b603d83612217565b9150612966826128ff565b604082019050919050565b6000602082019050818103600083015261298a8161294e565b9050919050565b7f4552433732313a2063616c6c6572206973206e6f7420746f6b656e206f776e6560008201527f72206f7220617070726f76656400000000000000000000000000000000000000602082015250565b60006129ed602d83612217565b91506129f882612991565b604082019050919050565b60006020820190508181036000830152612a1c816129e0565b9050919050565b600081905092915050565b50565b6000612a3e600083612a23565b9150612a4982612a2e565b600082019050919050565b6000612a5f82612a31565b9150819050919050565b7f4661696c656420746f2077697468647261770000000000000000000000000000600082015250565b6000612a9f601283612217565b9150612aaa82612a69565b602082019050919050565b60006020820190508181036000830152612ace81612a92565b9050919050565b7f4552433732313a20696e76616c696420746f6b656e2049440000000000000000600082015250565b6000612b0b601883612217565b9150612b1682612ad5565b602082019050919050565b60006020820190508181036000830152612b3a81612afe565b9050919050565b7f4552433732313a2061646472657373207a65726f206973206e6f74206120766160008201527f6c6964206f776e65720000000000000000000000000000000000000000000000602082015250565b6000612b9d602983612217565b9150612ba882612b41565b604082019050919050565b60006020820190508181036000830152612bcc81612b90565b9050919050565b600082905092915050565b60008190508160005260206000209050919050565b60006020601f8301049050919050565b600082821b905092915050565b600060088302612c407fffffffffffffffffffffffffffffffffffffffffffffffffffffffffffffffff82612c03565b612c4a8683612c03565b95508019841693508086168417925050509392505050565b6000819050919050565b6000612c87612c82612c7d846122be565b612c62565b6122be565b9050919050565b6000819050919050565b612ca183612c6c565b612cb5612cad82612c8e565b848454612c10565b825550505050565b600090565b612cca612cbd565b612cd5818484612c98565b505050565b5b81811015612cf957612cee600082612cc2565b600181019050612cdb565b5050565b601f821115612d3e57612d0f81612bde565b612d1884612bf3565b81016020851015612d27578190505b612d3b612d3385612bf3565b830182612cda565b50505b505050565b600082821c905092915050565b6000612d6160001984600802612d43565b1980831691505092915050565b6000612d7a8383612d50565b9150826002028217905092915050565b612d948383612bd3565b67ffffffffffffffff811115612dad57612dac61261f565b5b612db7825461283c565b612dc2828285612cfd565b6000601f831160018114612df15760008415612ddf578287013590505b612de98582612d6e565b865550612e51565b601f198416612dff86612bde565b60005b82811015612e2757848901358255600182019150602085019450602081019050612e02565b86831015612e445784890135612e40601f891682612d50565b8355505b6001600288020188555050505b50505050505050565b7f4d696e74206973206e6f7420656e61626c656400000000000000000000000000600082015250565b6000612e90601383612217565b9150612e9b82612e5a565b602082019050919050565b60006020820190508181036000830152612ebf81612e83565b9050919050565b7f4e487b7100000000000000000000000000000000000000000000000000000000600052601160045260246000fd5b6000612f00826122be565b9150612f0b836122be565b9250828202612f19816122be565b91508282048414831517612f3057612f2f612ec6565b5b5092915050565b7f57726f6e67206d696e742076616c756500000000000000000000000000000000600082015250565b6000612f6d601083612217565b9150612f7882612f37565b602082019050919050565b60006020820190508181036000830152612f9c81612f60565b9050919050565b6000612fae826122be565b9150612fb9836122be565b9250828201905080821115612fd157612fd0612ec6565b5b92915050565b7f536f6c64206f7574000000000000000000000000000000000000000000000000600082015250565b600061300d600883612217565b915061301882612fd7565b602082019050919050565b6000602082019050818103600083015261303c81613000565b9050919050565b7f457863656564206d61782077616c6c6574000000000000000000000000000000600082015250565b6000613079601183612217565b915061308482613043565b602082019050919050565b600060208201905081810360008301526130a88161306c565b9050919050565b60006130ba826122be565b91507fffffffffffffffffffffffffffffffffffffffffffffffffffffffffffffffff82036130ec576130eb612ec6565b5b600182019050919050565b7f546f6b656e20646f6573206e6f74206578697374210000000000000000000000600082015250565b600061312d601583612217565b9150613138826130f7565b602082019050919050565b6000602082019050818103600083015261315c81613120565b9050919050565b600081905092915050565b6000815461317b8161283c565b6131858186613163565b945060018216600081146131a057600181146131b5576131e8565b60ff19831686528115158202860193506131e8565b6131be85612bde565b60005b838110156131e0578154818901526001820191506020810190506131c1565b838801955050505b50505092915050565b60006131fc8261220c565b6132068185613163565b9350613216818560208601612228565b80840191505092915050565b600061322e828561316e565b915061323a82846131f1565b91508190509392505050565b7f4f776e61626c653a206e6577206f776e657220697320746865207a65726f206160008201527f6464726573730000000000000000000000000000000000000000000000000000602082015250565b60006132a2602683612217565b91506132ad82613246565b604082019050919050565b600060208201905081810360008301526132d181613295565b9050919050565b7f4552433732313a207472616e736665722066726f6d20696e636f72726563742060008201527f6f776e6572000000000000000000000000000000000000000000000000000000602082015250565b6000613334602583612217565b915061333f826132d8565b604082019050919050565b6000602082019050818103600083015261336381613327565b9050919050565b7f4552433732313a207472616e7366657220746f20746865207a65726f2061646460008201527f7265737300000000000000000000000000000000000000000000000000000000602082015250565b60006133c6602483612217565b91506133d18261336a565b604082019050919050565b600060208201905081810360008301526133f5816133b9565b9050919050565b7f4f776e61626c653a2063616c6c6572206973206e6f7420746865206f776e6572600082015250565b6000613432602083612217565b915061343d826133fc565b602082019050919050565b6000602082019050818103600083015261346181613425565b9050919050565b7f4552433732313a20617070726f766520746f2063616c6c657200000000000000600082015250565b600061349e601983612217565b91506134a982613468565b602082019050919050565b600060208201905081810360008301526134cd81613491565b9050919050565b7f4552433732313a207472616e7366657220746f206e6f6e20455243373231526560008201527f63656976657220696d706c656d656e7465720000000000000000000000000000602082015250565b6000613530603283612217565b915061353b826134d4565b604082019050919050565b6000602082019050818103600083015261355f81613523565b9050919050565b7f4e487b7100000000000000000000000000000000000000000000000000000000600052601260045260246000fd5b60006135a0826122be565b91506135ab836122be565b92508282039050818111156135c3576135c2612ec6565b5b92915050565b600081519050919050565b600082825260208201905092915050565b60006135f0826135c9565b6135fa81856135d4565b935061360a818560208601612228565b61361381612252565b840191505092915050565b60006080820190506136336000830187612353565b6136406020830186612353565b61364d60408301856123e9565b818103606083015261365f81846135e5565b905095945050505050565b6000815190506136798161217d565b92915050565b60006020828403121561369557613694612147565b5b60006136a38482850161366a565b91505092915050565b7f4552433732313a206d696e7420746f20746865207a65726f2061646472657373600082015250565b60006136e2602083612217565b91506136ed826136ac565b602082019050919050565b60006020820190508181036000830152613711816136d5565b9050919050565b7f4552433732313a20746f6b656e20616c7265616479206d696e74656400000000600082015250565b600061374e601c83612217565b915061375982613718565b602082019050919050565b6000602082019050818103600083015261377d81613741565b905091905056fea2646970667358221220cef4b08c646976a9cc0190e74864d4276c2d2007e54620b2c0c1dd1a27b10eda64736f6c63430008110033",
	"linkReferences": {},
	"deployedLinkReferences": {}
}